{
  "_format": "hh-sol-artifact-1",
  "contractName": "SimplePayment",
  "sourceName": "contracts/SimplePayment.sol",
  "abi": [
    {
      "inputs": [],
      "stateMutability": "nonpayable",
      "type": "constructor"
    },
    {
      "inputs": [],
      "name": "balanceOf",
      "outputs": [
        {
          "internalType": "uint256",
          "name": "",
          "type": "uint256"
        }
      ],
      "stateMutability": "view",
      "type": "function"
    },
    {
      "inputs": [],
      "name": "owner",
      "outputs": [
        {
          "internalType": "address",
          "name": "",
          "type": "address"
        }
      ],
      "stateMutability": "view",
      "type": "function"
    },
    {
      "inputs": [
        {
          "internalType": "address payable",
          "name": "recipient",
          "type": "address"
        }
      ],
      "name": "sendPayment",
      "outputs": [],
      "stateMutability": "payable",
      "type": "function"
    }
  ],
  "bytecode": "0x608060405234801561001057600080fd5b50336000806101000a81548173ffffffffffffffffffffffffffffffffffffffff021916908373ffffffffffffffffffffffffffffffffffffffff160217905550610317806100606000396000f3fe6080604052600436106100345760003560e01c8063722713f7146100395780638a7644a8146100645780638da5cb5b14610080575b600080fd5b34801561004557600080fd5b5061004e6100ab565b60405161005b919061017d565b60405180910390f35b61007e600480360381019061007991906101fb565b6100b3565b005b34801561008c57600080fd5b50610095610140565b6040516100a29190610249565b60405180910390f35b600047905090565b600034116100f6576040517f08c379a00000000000000000000000000000000000000000000000000000000081526004016100ed906102c1565b60405180910390fd5b8073ffffffffffffffffffffffffffffffffffffffff166108fc349081150290604051600060405180830381858888f1935050505015801561013c573d6000803e3d6000fd5b5050565b60008054906101000a900473ffffffffffffffffffffffffffffffffffffffff1681565b6000819050919050565b61017781610164565b82525050565b6000602082019050610192600083018461016e565b92915050565b600080fd5b600073ffffffffffffffffffffffffffffffffffffffff82169050919050565b60006101c88261019d565b9050919050565b6101d8816101bd565b81146101e357600080fd5b50565b6000813590506101f5816101cf565b92915050565b60006020828403121561021157610210610198565b5b600061021f848285016101e6565b91505092915050565b60006102338261019d565b9050919050565b61024381610228565b82525050565b600060208201905061025e600083018461023a565b92915050565b600082825260208201905092915050565b7f596f75206d7573742073656e6420736f6d652045746865722e00000000000000600082015250565b60006102ab601983610264565b91506102b682610275565b602082019050919050565b600060208201905081810360008301526102da8161029e565b905091905056fea26469706673582212207eddd59416f6902854174cfb0c37d9165aea383f63f1e9e32dd3fdd2edcc9df364736f6c63430008120033",
  "linkReferences": {},
  "deployedLinkReferences": {}
}